:100200000C9452010C947A010C947A010C947A01AA
:100210000C947A010C947A010C947A010C947A0172
:100220000C947A010C947A010C947A010C947A0162
:100230000C947A010C947A010C947A010C947A0152
:100240000C947A010C94030B0C94DD0A0C947A0143
:100250000C947A010C947A010C947A010C947A0132
:100260000C947A010C947A010C947A010C947A0122
:100270000C947A010C947A010C947A010C947A0112
:100280000C947A010C947A010C947A010C947A0102
:100290000C94790A0C944F0B0C94290B0C947A0152
:1002A000750BEF0D11241FBECFEFCDBFDFE3DEBF17
:1002B0002AE2AEE0B8E201C01D92A631B207E1F732
:1002C00018E2A0E0B8E2EAE9F2E202C005900D927D
:1002D000AE30B107D9F711E0C1E5D1E004C02197F4
:1002E000FE010E94D80EC035D107C9F70E941D0C2F
:1002F0000C94C9100C940001CF93DF9390E0FC01A3
:10030000E95DFD4920812F3F71F0FC01E250FE497B
:10031000A08130E2A39FD0011124BC5F6130710540
:1003200029F411962C93DF91CF9108958B529E4919
:10033000EC01E881EF3F89F0CD014096E80FF92FFD
:10034000F11D9FB7F89412962C938081623071054D
:1003500039F4886080839FBFE6CFF0E0E0E0F1CF22
:10036000877FF8CF282F30E0F901E455FE49E0817E
:10037000EE2309F1E13021F0F0F0E63098F0089535
:100380004091010A2B523E49F90120812C5F81E006
:1003900090E001C0880F2A95EAF780958423809326
:1003A000010A089580E1E89FF0011124E05AF54F19
:1003B00081818F7E81830895FF920F931F93CF9346
:1003C000DF93082F10E0F801E95DFD49F0809FEF11
:1003D000F916A1F0EB01893210F40E94B201F80184
:1003E000E250FE49E08180E2E89FF0011124FC5FC9
:1003F00080818F2159F0CD2B39F4F682DF91CF9196
:100400001F910F91FF900895F582F8CFD801AB525C
:10041000BE498C91309771F08F3F61F07096E80F74
:10042000F11D9FB7F8948081CD2B39F4877F8083AD
:100430009FBFE4CFF0E0E0E0F4CF8860F8CF0F9307
:100440001F93CF93082F10E0F801E95DFD49C081AB
:10045000CF3FB9F0893210F40E94B201F801E250A6
:10046000FE49E08180E2E89FF0011124FC5F808575
:10047000C82381E090E009F480E0CF911F910F91B3
:10048000089580E090E0F9CF893210F40C94DC01FB
:100490000895893210F40C947C010895CF93DF9372
:1004A0008FB7F8942091202830912128409122285C
:1004B00050912328E091BA0A9091B60A90FF06C0A5
:1004C0002F5F3F4F4F4F5F4FE091BA0A8FBFA09110
:1004D0001E28B0911F28C0911C28D0911D280E9471
:1004E000070EEC9F9001ED9F300D1124620F731FDA
:1004F000811D911DDF91CF9108958F929F92AF92B0
:10050000BF92CF92DF92EF92FF924B015C010E946B
:100510004E026B017C01A8EEB3E0A50194010E949C
:10052000070EC60ED71EE81EF91EC616D706E80629
:10053000F90618F40E944E02F8CF0E944E026C1584
:100540007D058E059F05C8F3FF90EF90DF90CF905B
:10055000BF90AF909F908F900895DC01ED91FC913A
:100560000190F081E02D0994AF92BF92CF92DF927B
:10057000EF92FF920F931F93CF93DF936C017B0158
:100580008B01040F151FEB015E01AE18BF08C017E9
:10059000D10759F06991D601ED91FC910190F0815C
:1005A000E02DC6010995892B79F7C501DF91CF911F
:1005B0001F910F91FF90EF90DF90CF90BF90AF9081
:1005C0000895FC01A485B58511968C91119781FD44
:1005D0001BC06C9182898F5F8F739389981739F054
:1005E000A289AE0FBF2FB11D59966C93828BE7562F
:1005F000FF4F80819181009741F0DC01ED91FC91EA
:100600000190F081E02D09948C910895FC015489AA
:100610004589252F30E0842F90E0821B930B5417DF
:1006200010F0CF96089501970895FC01928983896F
:10063000981761F0A389AE0FBF2FB11D59968C9109
:1006400093899F5F9F73938B90E008958FEF9FEF47
:100650000895FC0192898389981731F08389E80F06
:10066000F11D818D90E008958FEF9FEF0895FC01BB
:1006700092892389892F90E0805C9F4F821B91098A
:100680008F7399270895CF93DF93EC01E881F98167
:100690000680F781E02D0995EC85FD8586818F73B5
:1006A0008683EC85FD8585818F7585838B898A8B13
:1006B000198ADF91CF910895CF92DF92EF92FF9246
:1006C0000F931F93CF93DF93EC016A017B01022FFD
:1006D0008989882339F0E881F9810288F389E02D3E
:1006E000CE01099598898091E205892B8093E205D6
:1006F0001FB7F89460E070E281EA97E0A7019601E5
:100700000E94660E69017A018FEFC81AD80AE80ABA
:10071000F80AF694E794D794C794EC85FD85868112
:100720008D7F8683EC85FD8586818683198AA091DD
:1007300023110A2E000CBB0BA70196010E94A70EE5
:1007400020E034E040E050E00E94880EEC85FD851A
:10075000C20ED31EE41EF51EC086D186EC85FD8533
:100760000783EC85FD858681806C8683EC85FD851D
:100770008581806885838E8562E070E00E944902F1
:100780008F8561E070E00E9444028F8561E070E037
:100790000E9449021FBFDF91CF911F910F91FF90DF
:1007A000EF90DF90CF900895CF93DF93FC01948971
:1007B0008589C485D585981306C08D818F7D8D83ED
:1007C000DF91CF910895A589AE0FBF2FB11DA75A14
:1007D000BF4F2C91858990E001968F739927858B67
:1007E00080E48C83A485B58512962C9394898589A1
:1007F0009813E6CFA485B58515968C9115978F7DB6
:1008000015968C9387898823D9F2808D8093130164
:10081000178AD6CFDC011C96ED91FC910FB607FE2E
:1008200003C0258125FD04C0248125FD0C94D4033B
:100830000895EF92FF920F931F93CF93DF93EC01F4
:1008400081E0898B9C898D8998131CC0AC85BD85FE
:1008500014968C91149785FF15C012966C93AC85F5
:10086000BD8580E414968C93EC85FD8585818F7D14
:10087000858381E090E0DF91CF911F910F91FF90F0
:10088000EF9008958091110180FF08C080911301BD
:10089000888F8E898093130181E08F8BF62E0C89CF
:1008A00010E00F5F1F4F0F731127E02E8D898E11FF
:1008B00004C0CE010E940A04F9CFEC89EC0FFD2F91
:1008C000F11DE75AFF4FF0820C8BEC85FD85858189
:1008D0008062CECFCF93DF93FC0121892223C9F020
:1008E000EC018091110180FF08C080911301808F7D
:1008F00086898093130181E0878BEC85FD85858156
:1009000085FD03C0848186FD04C0CE010E940A04D7
:10091000F4CFDF91CF91089581E008950895EF928B
:10092000FF920F931F93CF93DF937C01EB018B0119
:10093000040F151FC017D10759F0D701ED91FC9195
:100940000480F581E02D6881C70109958993F2CF74
:10095000DF91CF911F910F91FF90EF9008950F932A
:100960001F93CF93DF93EC018B018091C008E88146
:10097000F9810480F581E02D86FD13C0612FCE0141
:100980000995182FE881F9810480F581E02D602F09
:10099000CE010995082FC801DF91CF911F910F91CA
:1009A0000895CE010995082FE881F9810480F58129
:1009B000E02D612FCE010995182FEDCF0000609337
:1009C000C4088091C30887FFFCCF8091C4080895B4
:1009D000CF93DF931F92CDB7DEB78983698188EC0F
:1009E00099E20F90DF91CF910C94DE04CF93DF93C7
:1009F000EC018FEF0E94E8048883DF91CF91089586
:100A0000AF92BF92CF92DF92EF92FF920F931F931C
:100A1000CF93DF9300D0CDB7DEB7182F6B017A01EB
:100A20001A8289EEA82E83E0B82E1982CE01019693
:100A30000E94F60489818F3E31F091E0A91AB10835
:100A400031F1803E91F7CE0102960E94F6041068C3
:100A50008A8118131EC0CE0102960E94F6048A8174
:100A60008130B9F48FEF0E94E804F701808310E031
:100A700000E0F701808180171106D1F0CCF0C601AB
:100A8000800F911F0E94F6040F5F1F4FF2CF803E30
:100A9000D1F290E080E00F900F90DF91CF911F9105
:100AA0000F91FF90EF90DF90CF90BF90AF9008959F
:100AB000CE0102960E94F60481E090E0ECCF8F9286
:100AC0009F92AF92BF92CF92DF92EF92FF920F93DD
:100AD0001F93CF93DF93FC018085882319F081FF5A
:100AE0000EC07894DF91CF911F910F91FF90EF90FE
:100AF000DF90CF90BF90AF909F908F90089580FF30
:100B0000F1CF82849384A484B584C12CD12C760146
:100B100010E09401A501B601C701A0E00E94CC0E2F
:100B200099F1217030E040E050E060E070E080E05A
:100B300090E00E94CC0ED9F0D0E0C0E0103370F409
:100B4000C12FC695C695C69580E2C89FE0011124C5
:100B5000C05FDB4F812F8770C80FD11DCF01810F80
:100B6000911DDC0152968C919881892B8883940188
:100B7000A501B601C70101E00E94B10E49015A0169
:100B80006B017C011F5FC5CF86849784A088B188E4
:100B9000C12CD12C760110E29401A501B601C70148
:100BA000A0E00E94CC0E09F49DCF217030E040E01F
:100BB00050E060E070E080E090E00E94CC0ED9F060
:100BC000D0E0C0E0103370F4C12FC695C695C6952D
:100BD000B0E2CB9FE0011124C05FDB4F812F877013
:100BE000C80FD11DCF01810F911DDC0152968C9150
:100BF0009881892B88839401A501B601C70101E082
:100C00000E94B10E49015A016B017C011F5FC4CFE4
:100C100061E070E0809101280E94440288EC99E232
:100C20000C945F05FC016F3F710581F1808581FDAA
:100C30002DC0603271055CF581E090E002C0880F44
:100C4000991F6A95E2F780959095092E000CAA0BE2
:100C5000BB0B428553856485758584239523A62324
:100C6000B72382879387A487B58782859385A485D8
:100C7000B585892B8A2B8B2B49F486859785A0898E
:100C8000B189892B8A2B8B2B09F410860895605229
:100C9000710981E090E002C0880F991F6A95E2F720
:100CA00080959095092E000CAA0BBB0B46855785A5
:100CB0006089718984239523A623B7238687978724
:100CC000A08BB18BD2CFFC016F3F7105E9F160338E
:100CD00071051CF082E0808708958085816080879F
:100CE00060327105C4F481E090E002C0880F991F62
:100CF0006A95E2F7092E000CAA0BBB0B42855385BF
:100D000064857585842B952BA62BB72B82879387BB
:100D1000A487B58708956052710981E090E002C010
:100D2000880F991F6A95E2F7092E000CAA0BBB0BDE
:100D30004685578560897189842B952BA62BB72B07
:100D400086879787A08BB18B0895E0ECF8E020812F
:100D50002E7F2083FC0117820895E0ECF8E0828169
:100D60008E7F82830895E0ECF8E082818160828347
:100D70000895DC01ED91FC910088F189E02D23E0DC
:100D800030E009948FB7F894409124285091252899
:100D900060912628709127288FBF8091062889327C
:100DA00020F40E941F02892BC1F708950C947A0F3A
:100DB000FB0101900020E9F73197AF01461B570B6B
:100DC000DC01ED91FC910280F381E02D09948F927A
:100DD0009F92AF92BF92EF92FF920F931F93CF9388
:100DE000DF93CDB7DEB7A197CDBFDEBF7C01FA019F
:100DF000CB0119A2223008F42AE08E010F5D1F4FAB
:100E0000822E912CB12CA12CBF01A50194010E942E
:100E1000660EF901CA016A30F4F4605DD8016E9380
:100E20008D01232B242B252B79F790E080E0109760
:100E300021F0BD01C7010E94D806A196CDBFDEBF3B
:100E4000DF91CF911F910F91FF90EF90BF90AF90E6
:100E50009F908F900895695CE1CF2F923F924F92BF
:100E60005F926F927F928F929F92AF92BF92CF923A
:100E7000DF92EF92FF920F931F93CF93DF9300D0F7
:100E80001F92CDB7DEB78A839B834B01FC01828919
:100E90009389019709F0CEC08F0144244A9431E030
:100EA00090E08FEF20E042814111B0C043814111B9
:100EB000ADC09F5F8F3F11F4822F91E0391714F47A
:100EC000392F482E32962F5F283069F71A821B82FD
:100ED000D12CC12CA42C042C000CBB083501630EB2
:100EE000711C37FD7A94CA14DB0424F0C614D704AD
:100EF0000CF490C0F8018281682F70E094E0759541
:100F000067959A95E1F7362E8F70582E8381E82EDB
:100F1000F12C24E0F594E7942A95E1F72E2C8F70BC
:100F20008983662309F4B7C0F9E0F61708F470C0A6
:100F3000605DC4010E94AD022A813B81280F391FE8
:100F40002A833B8339E060E3351508F467E5650DD6
:100F5000C4010E94AD02EA81FB81E80FF91FEA8318
:100F6000FB83311004C0511002C0222079F0F9E057
:100F700060E3F21508F467E56E0DC4010E94AD024E
:100F80002A813B81280F391F2A833B833981632FB4
:100F9000605D3A3010F06981695AC4010E94AD0267
:100FA000EA81FB81E80FF91FEA83FB83F7E0CF16A4
:100FB000D10451F06AE3C4010E94AD022A813B8151
:100FC000280F391F2A833B833FEFC31AD30A0E5FD2
:100FD0001F4F88E0C816D10409F085CF8A819B8114
:100FE0002396CDBFDEBFDF91CF911F910F91FF9070
:100FF000EF90DF90CF90BF90AF909F908F907F90B9
:101000006F905F904F903F902F9008958FEF5ACF41
:10101000695A8FCFAC14BD04B9F64110CBCF6AE347
:10102000C4010E94AD02EA81FB81E80FF91FEA8347
:10103000FB83C0CFEA80FB80EEE0EE0EF11CAA80BD
:10104000BB80F1E1AF0EB11C10E000E0F70141916F
:101050007F0150E070E060E02AE0C4010E94E706F2
:101060006C016EE2C4010E94AD028C0D9D1D080F43
:10107000191FAE14BF0451F7EA81FB81418950E08A
:1010800070E060E02AE0C4010E94E706800F911F33
:101090008A839B83A3CF511055CF67CFCF92DF9226
:1010A000EF92FF920F93FC01C12CB9E0DB2EBDE360
:1010B000EB2EF12CC082D182E282F382148215825F
:1010C00081E090E086839783C0900228D090032827
:1010D000E0900428F0900528F694E794D794C794FC
:1010E00090E04C155D056E057F0540F4F694E7949D
:1010F000D794C7949F5F9630A1F797E0046001876B
:10110000892F8095A82FA170B0E084E0AA0FBB1FA3
:101110008A95E1F791629A2B80E0232B09F480E411
:10112000982B90870F91FF90EF90DF90CF900895CC
:101130000F931F93CF93DF93CDB7DEB72A97CDBF21
:10114000DEBF8C01FC01878181110CC010861186E5
:10115000128613861486158616861786108A118ABB
:1011600081E087838091E305F8019681892B809344
:10117000E30561E070E083810E94490261E070E074
:10118000F80184810E9449028091C10884608093A3
:10119000C1088091C00881628093C00840910A2AEA
:1011A00050910B2A60910C2A70910D2A00910E2A01
:1011B0002091102A3091112ACE0101960E944E08EA
:1011C00099858A859093C0088093C1082A96CDBFDF
:1011D000DEBFDF91CF911F910F910895CF9383E2EE
:1011E0008093012884E280930628C1E0C0930E28F2
:1011F0008DE18093002861E070E083E20E947C0131
:1012000070E060E084E20E94490261E070E08DE1FC
:101210000E94490261E070E08CE10E947C0161E083
:1012200070E08CE10E94DC0161E070E083E20E94EA
:10123000440261E070E08DE10E9444026AE070E0E7
:1012400080E090E00E947D0270E060E08DE10E940D
:1012500044026EEE72E080E090E00E947D0270E059
:1012600060E08CE10E94DC0170E060E08CE10E94B3
:101270007C0188EC99E20E949808C0931528CF91D0
:1012800008955F926F927F928F929F92AF92BF92DA
:10129000CF92DF92EF92FF920F931F93CF93DF9342
:1012A000CDB7DEB76297CDBFDEBF3C010B871C8791
:1012B0002D873E87042F4F87588B698B7A8B29891E
:1012C0003A894B855C856D857E85CE0101960E94AD
:1012D0004E0859841A85D30118968C91882319F0E9
:1012E00081FF18C0F8945092C0081093C10862960C
:1012F000CDBFDEBFDF91CF911F910F91FF90EF9097
:10130000DF90CF90BF90AF909F908F907F906F9025
:101310005F90089580FFE7CFF30182849384A484D3
:10132000B584C12CD12C7601B0E09401A501B601A1
:10133000C701A0E00E94CC0EA9F1217030E040E08E
:1013400050E060E070E080E090E00E94CC0EE9F0B8
:1013500090E080E0B03370F48B2F8695869586956B
:10136000F0E28F9FC0011124805F9B4F2B2F2770CD
:10137000820F911DFC01408193012B0F311DF9015A
:10138000428BFC012081287F20839401A501B601B6
:10139000C70101E00E94B10E49015A016B017C01B5
:1013A000BF5FC3CFD3011E968D909D90AD90BC9032
:1013B0005197C12CD12C7601B0E29401A501B60160
:1013C000C701A0E00E94CC0E09F48DCF217030E05F
:1013D00040E050E060E070E080E090E00E94CC0EE1
:1013E000E9F090E080E0B03370F48B2F869586951D
:1013F0008695E0E28E9FC0011124805F9B4F2B2FCA
:101400002770820F911DFC01408193012B0F311D2C
:10141000F901428BFC012081287F20839401A501E2
:10142000B601C70101E00E94B10E49015A016B01EA
:101430007C01BF5FC2CFCF92DF92EF92FF920F93FA
:101440001F93CF93DF93CDB7DEB72897CDBFDEBF15
:1014500080E0082F898382E18A838AE78B831C825C
:101460001D821E8281E0682F8F83188612E12AE791
:1014700030E040E05E8170E088EC99E20E94410932
:1014800070E060E0809101280E9444028FB7F894D8
:10149000C0902428D0902528E0902628F090272876
:1014A0008FBF809106288932F8F02FB7F894809189
:1014B000242890912528A0912628B09127282FBF75
:1014C0008C199D09AE09BF090597A105B10548F31F
:1014D0002896CDBFDEBFDF91CF911F910F91FF9076
:1014E000EF90DF90CF9008950E941F02019781F343
:1014F000DCCF1F920F920FB60F9211242F933F93C0
:101500004F935F936F937F938F939F93AF93BF930B
:1015100040912428509125286091262870912728F1
:1015200080911A2890911B28209118283091192811
:10153000420F531F611D711D2091162830911728ED
:10154000820F931F883E23E0920730F0885E93401D
:101550004F5F5F4F6F4F7F4F80931A2890931B28E8
:101560004093242850932528609326287093272899
:101570008091202890912128A0912228B0912328A1
:101580000196A11DB11D8093202890932128A0933E
:101590002228B093232881E08093B60ABF91AF91AF
:1015A0009F918F917F916F915F914F913F912F917B
:1015B0000F900FBE0F901F9018951F920F920FB6AD
:1015C0000F9211242F933F934F935F936F937F93C9
:1015D0008F939F93AF93BF93EF93FF9380E598E230
:1015E0000E94D403FF91EF91BF91AF919F918F9192
:1015F0007F916F915F914F913F912F910F900FBE0F
:101600000F901F9018951F920F920FB60F921124F2
:101610002F933F934F935F936F937F938F939F93FA
:10162000AF93BF93EF93FF9380E598E20E94E102AE
:10163000FF91EF91BF91AF919F918F917F916F91AA
:101640005F914F913F912F910F900FBE0F901F9080
:1016500018951F920F920FB60F9211242F933F935C
:101660004F935F936F937F938F939F93AF93BF93AA
:10167000EF93FF938BEE98E20E94D403FF91EF91DA
:10168000BF91AF919F918F917F916F915F914F919A
:101690003F912F910F900FBE0F901F9018951F92A2
:1016A0000F920FB60F9211242F933F934F935F9396
:1016B0006F937F938F939F93AF93BF93EF93FF931A
:1016C0008BEE98E20E94E102FF91EF91BF91AF9102
:1016D0009F918F917F916F915F914F913F912F914A
:1016E0000F900FBE0F901F901895CF92DF92EF9240
:1016F000FF92CF93DF93ECE3F8E284E592E68083F8
:10170000918321E030E0228B338BEEE3F8E240E17D
:10171000DF011D924A95E9F7E8E2F8E280839183C0
:10172000128A138AAAE2B8E28CE0ED0119928A9536
:10173000E9F716861786108A118AE0E5F8E2128228
:10174000138288EEC82E83E0D82EE12CF12CC482BF
:10175000D582E682F7824AE552E64083518380E0F3
:1017600098E08487958787E1868788E1878781E08D
:10177000808B128A138A148A158A92E1968B178AB3
:10178000108E1092E9281092EA28EBEEF8E212820D
:101790001382C482D582E682F7824083518340E679
:1017A00058E0448755879AE196879BE1978790E4B4
:1017B000908B128A138A148A158A96E2968B178A5E
:1017C000108E1092842910928529E6E8F9E29CE3B4
:1017D000DF011D929A95E9F7E2ECF9E240E553EC5E
:1017E00060E070E0408351836283738314821582CA
:1017F000EAE0FAE240E059E06DE370E040835183B3
:10180000628373831482158226833783E8ECF9E2BE
:1018100024E732E6208331831782868381E2828344
:1018200082E2848380E2838386E18583DF91CF91A6
:10183000FF90EF90DF90CF900895CF93DF9300D08B
:10184000CDB7DEB788ED90E084BF9093610080E073
:1018500094E2A4EFB0E08093022890930328A09331
:101860000428B093052880910206866080930206C2
:1018700080910006816080930006809102068F7C33
:10188000809302068091A0008F788093A0008091C1
:1018900002068061809302061092E20581E0809347
:1018A000E40583E08093010A8FEF90E08093260A9D
:1018B0009093270A80E890E08093380A9093390A41
:1018C00080933A0A90933B0A80933C0A90933D0A96
:1018D0008BE08093000A8091E50581608093E505A7
:1018E0008091E50582608093E505E0E8FAE037E065
:1018F0002FEF90E885E03183248795878083709669
:10190000E03C4AE0F407B9F780E094E080931E28B9
:1019100090931F2880911E2890911F282FEF30E070
:10192000B9010E94520E60931C2870931D2880916B
:101930001E2890911F28E8EEF3E0BF010E94520E8E
:10194000609318287093192880911E2890911F2861
:10195000BF010E94520E809316289093172820935F
:10196000BC0A3093BD0A8091B50A81608093B50AA4
:1019700084E08093B00A8091B00A81608093B00ABD
:10198000789461E070E08CE10E947C0161E070E09D
:101990008CE10E94DC0161E070E08DE10E947C013D
:1019A00061E070E08DE10E94DC0161E070E083E2C3
:1019B0000E947C0161E070E083E20E94DC0161E052
:1019C00070E08EE10E947C0161E070E08EE10E9497
:1019D000DC0140E052EC61E070E08BEE98E20E94A6
:1019E000B90640E052EC61E070E080E598E20E94C8
:1019F000B90661E070E08CE10E947C0161E070E07A
:101A00008DE10E947C018BEE98E20E943703892BC6
:101A1000D1F38BEE98E20E941503823759F0863796
:101A200009F447C000E010E001151105E9F30E9438
:101A30000000FACF70E060E08CE10E94DC0170E011
:101A400060E08DE10E94DC0164E670E080E090E0FF
:101A50000E947D0261E070E08DE10E94DC0164E69D
:101A600070E080E090E00E947D0270E060E08DE137
:101A70000E94DC018BEE98E20E943703892B49F02B
:101A80008BEE98E20E941503682F80E598E20E9491
:101A9000190480E598E20E943703892B59F380E509
:101AA00098E20E941503682F8BEE98E20E941904B9
:101AB000E1CF80911528811102C00E94EE080E949A
:101AC000C2060E941B0A80EE0E94E80480E20E9487
:101AD000E80480E00E94E8048EEE0E94E8040E9480
:101AE00008060E94C2060E941B0A8FEF8A83198291
:101AF000AE014F5F5F4FBE016E5F7F4F80E20E947D
:101B000000050E9408068A818F3F69F46EE872E63C
:101B10008BEE98E20E94D80667E972E68BEE98E2B7
:101B20000E94D8067FCF80911528811102C00E94A3
:101B3000EE080E94C2060E941B0A80EE0E94E80482
:101B400087E30E94E80480E00E94E8048EEE0E9491
:101B5000E8040E9408060E94C2060E941B0A19821D
:101B6000AE014F5F5F4F6FE078E287E30E940005B0
:101B70000E9408060FE018E2F80101900020E9F742
:101B80008F0100511842B8016F5F7F4F90E080E0F5
:101B90000E9403107C010097F9F0FC011082A8015B
:101BA0006FE078E20E94C010F701E00FF11F108291
:101BB000A801B7018BEE98E20E94B40267E972E6D1
:101BC0008BEE98E20E94D806E114F10409F42ACFC2
:101BD000C7010E947A0F26CF10E000E0E9CFCF9333
:101BE000DF93C6E8D9E288819981009741F00E948D
:101BF0007A0F1A821B82188219821C821D822696F5
:101C000089E2C23CD80779F7DF91CF9108950E940D
:101C1000430EA59F900DB49F900DA49F800D911D24
:101C2000112408952F923F924F925F926F927F926C
:101C30008F929F92AF92BF92CF92DF92EF92FF92DC
:101C40000F931F93CF93DF93CDB7DEB7CA1BDB0B88
:101C5000CDBFDEBF09942A88398848885F846E84A6
:101C60007D848C849B84AA84B984C884DF80EE80C0
:101C7000FD800C811B81AA81B981CE0FD11DCDBF02
:101C8000DEBFED010895A29FB001B39FC001A39FE5
:101C9000700D811D1124911DB29F700D811D1124A5
:101CA000911D0895AA1BBB1B51E107C0AA1FBB1FB2
:101CB000A617B70710F0A61BB70B881F991F5A95D8
:101CC000A9F780959095BC01CD010895A1E21A2E47
:101CD000AA1BBB1BFD010DC0AA1FBB1FEE1FFF1FD0
:101CE000A217B307E407F50720F0A21BB30BE40B20
:101CF000F50B661F771F881F991F1A9469F7609567
:101D00007095809590959B01AC01BD01CF01089520
:101D1000052E97FB1EF400940E949F0E57FD07D0DE
:101D20000E94660E07FC03D04EF40C949F0E509553
:101D30004095309521953F4F4F4F5F4F08959095B7
:101D40008095709561957F4F8F4F9F4F0895B7FF96
:101D50000C94070E0E94070E821B930B089597FDAB
:101D60001094002E083098F00850232F342F452F60
:101D7000562F672F782F892F912DF4CF1594979593
:101D800087957795679557954795379527950A9540
:101D9000AAF71124002D08950024A7FD00942A1706
:101DA00030054005500560057005800590050895D3
:101DB000EE0FFF1F0590F491E02D09940F931F93F0
:101DC000CF93DF938230910510F482E090E0E091B0
:101DD000142AF091152A30E020E0B0E0A0E030971E
:101DE00099F42115310509F44AC0281B390B243018
:101DF0003105D8F58A819B816115710589F1FB0157
:101E000082839383FE0111C040815181028113813D
:101E100048175907E0F04817590799F4109761F0EF
:101E200012960C93129713961C933296CF01DF9162
:101E3000CF911F910F9108950093142A1093152AA2
:101E4000F4CF2115310551F04217530738F0A9019D
:101E5000DB019A01BD01DF01F801C1CFEF01F9CF2C
:101E60008093142A9093152ACDCFFE01E20FF31F21
:101E7000819391932250310928833983D7CF2091C0
:101E8000122A3091132A232B41F4209109283091F2
:101E90000A282093122A3093132A20910728309180
:101EA00008282115310541F42DB73EB740910B2884
:101EB00050910C28241B350BE091122AF091132A23
:101EC000E217F307A0F42E1B3F0B2817390778F011
:101ED000AC014E5F5F4F2417350748F04E0F5F1F70
:101EE0004093122A5093132A819391939FCFF0E04D
:101EF000E0E09CCFCF93DF930097E9F0FC013297AD
:101F000012821382A091142AB091152AED0130E0BB
:101F100020E01097A1F420813181820F931F20913E
:101F2000122A3091132A2817390709F061C0E0936B
:101F3000122AF093132ADF91CF910895EA01CE1768
:101F4000DF07E8F54A815B819E0141155105B1F734
:101F5000E901EA83FB8349915991C40FD51FEC171E
:101F6000FD0761F4808191810296840F951FE9013C
:101F700088839983828193818A839B83F0E0E0E068
:101F800012968D919C9113970097B9F52D913C91E4
:101F90001197CD010296820F931F2091122A309142
:101FA000132A2817390739F6309751F51092142A59
:101FB0001092152AA093122AB093132ABCCFC28381
:101FC000D38340815181840F951FC817D90761F4CD
:101FD0004E5F5F4F88819981480F591F408351831D
:101FE0008A819B81828393832115310509F0B0CFCB
:101FF000E093142AF093152A9ECFFD01DC01C0CF97
:1020000012821382D7CFB0E0A0E0E9E0F0E10C94B7
:10201000140E8C01009751F4CB010E94DE0E8C014E
:10202000C801CDB7DEB7E0E10C942D0EFC01E60F40
:10203000F71F9C0122503109E217F30708F49DC0F5
:10204000D901CD91DC911197C617D70798F0C5300B
:10205000D10530F3CE0104978617970708F3C61B06
:10206000D70B2297C193D1936D937C93CF010E949C
:102070007A0FD6CF5B01AC1ABD0A4C018C0E9D1EA7
:10208000A091142AB091152A512C412CF12CE12C4D
:10209000109731F58091122A9091132A881599058D
:1020A00009F05CC04616570608F058C08091072812
:1020B00090910828009741F48DB79EB740910B2866
:1020C00050910C28841B950BE817F90708F055C0B0
:1020D000E093122AF093132AF90160837183A0CF51
:1020E0008D919C91119712966C90129713967C90FB
:1020F0001397A815B90559F56C0142E0C40ED11C1F
:10210000CA14DB0420F1AC014A195B09DA0112960A
:10211000159780F06282738240835183D9016D9359
:102120007C93E114F10471F0D7011296ED93FC93C6
:10213000139776CF22968C0F9D1FF9018083918390
:10214000F301EFCFE093142AF093152A69CF4816D4
:10215000590608F42C017D01D3019ACFCB010E94CE
:10216000DE0E7C01009749F0AE01B8010E94C0105C
:10217000C8010E947A0F870153CF10E000E050CFD2
:10218000FB01DC0102C001900D9241505040D8F794
:10219000089511E0C1E5D1E004C0FE010E94D80E0F
:0C21A0002196C235D107C9F7F894FFCF93
:1021AC00000000030001020000010100000000001B
:1021BC000000000000000000000000000000000013
:1021CC0000000000000000000005040005060204E9
:1021DC0001030001000102000102030405020303D4
:1021EC0005040605040607030700010202030001AB
:1021FC0007060202000502010500040101040404A3
:10220C0003030303030300000200000301010000A9
:10221C0001020202020505050503052010012040FC
:10222C000410020801020102040102040810200437
:10223C000808201040201040800880010204040887
:10224C0001028040000000002D070000000019046E
:10225C00B40206036A04370315032903B9065C03A9
:10226C0043038C04000000008E04D606DE04AF0489
:10227C008F046306120641095F05B306AD06980884
:0E228C00A50639392E39392E3939000D0A00D0
:0E229A00050A0024F400070000162A80000048
:0400000300000200F7
:00000001FF
