:100200000C9452010C947A010C947A010C947A01AA
:100210000C947A010C947A010C947A010C947A0172
:100220000C947A010C947A010C947A010C947A0162
:100230000C947A010C947A010C947A010C947A0152
:100240000C947A010C945F0D0C94390D0C947A0186
:100250000C947A010C947A010C947A010C947A0132
:100260000C947A010C947A010C947A010C947A0122
:100270000C947A010C947A010C947A010C947A0112
:100280000C947A010C947A010C947A010C947A0102
:100290000C94D50C0C94AB0D0C94850D0C947A0138
:1002A000D10DA61211241FBECFEFCDBFDFE3DEBFFD
:1002B0002EE2AEE0B8E201C01D92A334B207E1F72E
:1002C00018E2A0E0B8E2EEE8FEE202C005900D926E
:1002D000AE30B107D9F711E0C1E5D1E004C02197F4
:1002E000FE010E949D14C035D107C9F70E94B80EC7
:1002F0000C9495160C9400010F931F93CF93DF93EA
:10030000EC018C01060F171F0C171D0759F169919D
:1003100080912F2E9091302EDC01ED91FC91019077
:10032000F081E02D6B3D71F4099580912F2E909115
:10033000302EDC01ED91FC910190F081E02D6DED0E
:100340000995E2CF603CE1F76BED099580912F2E86
:100350009091302EDC01ED91FC910190F081E02D27
:100360006CEDEECFDF91CF911F910F910895EF9239
:10037000FF920F931F93CF93DF93CDB7DEB72697EE
:10038000CDBFDEBF7C018B014D835E8383E0E81629
:10039000F10409F464C019821A821B821C828091C4
:1003A0002F2E9091302EDC01ED91FC910190F08187
:1003B000E02D60EC099580912F2E9091302EDC017C
:1003C000ED91FC910190F081E02D60E00995809124
:1003D0002F2E9091302EDC01ED91FC910190F08157
:1003E000E02D6E2D099580912F2E9091302EDC01FD
:1003F000ED91FC910280F381E02D42E050E0BE01DE
:100400006B5F7F4F099564E070E0CE0101960E941A
:100410007C016D817E81C8010E947C0180912F2E1C
:100420009091302EDC01ED91FC910190F081E02D56
:1004300060EC099580912F2E9091302EDC01ED918A
:10044000FC910680F781E02D09952696CDBFDEBF91
:10045000DF91CF911F910F91FF90EF9008954D8103
:100460005E81FB0170968FEE90E0A0E0B0E09F010E
:10047000201B310B2417350718F421918227F7CF61
:1004800089839A83AB83BC838ACFCF93DF9390E039
:10049000FC01ED51F24920812F3F71F0FC01E6543F
:1004A000F249A08130E2A39FD0011124BC5F6130EA
:1004B000710529F411962C93DF91CF9108958F56F1
:1004C0009249EC01E881EF3F89F0CD014096E80FB9
:1004D000F92FF11D9FB7F89412962C93808162300A
:1004E000710539F4886080839FBFE6CFF0E0E0E0DB
:1004F000F1CF877FF8CF282F30E0F901E859F24992
:10050000E081EE2309F1E13021F0F0F0E63098F0DF
:1005100008954091010A2F563249F90120812C5F3C
:1005200081E090E001C0880F2A95EAF78095842346
:100530008093010A089580E1E89FF0011124E05AB8
:10054000F54F81818F7E81830895FF920F931F93D2
:10055000CF93DF93082F10E0F801ED51F249F080BE
:100560009FEFF916A1F0EB01893210F40E947B0293
:10057000F801E654F249E08180E2E89FF00111249D
:10058000FC5F80818F2159F0CD2B39F4F682DF9109
:10059000CF911F910F91FF900895F582F8CFD80168
:1005A000AF56B2498C91309771F08F3F61F07096E1
:1005B000E80FF11D9FB7F8948081CD2B39F4877F28
:1005C00080839FBFE4CFF0E0E0E0F4CF8860F8CF15
:1005D0000F931F93CF93082F10E0F801ED51F249CC
:1005E000C081CF3FB9F0893210F40E947B02F8013C
:1005F000E654F249E08180E2E89FF0011124FC5FBB
:100600008085C82381E090E009F480E0CF911F91BC
:100610000F91089580E090E0F9CF893210F40C94A6
:10062000A5020895893210F40C9445020895CF93E1
:10063000DF938FB7F8942091412C3091422C409158
:10064000432C5091442CE091BA0A9091B60A90FF45
:1006500006C02F5F3F4F4F4F5F4FE091BA0A8FBFE9
:10066000A0913F2CB091402CC0913D2CD0913E2CBC
:100670000E94E713EC9F9001ED9F300D1124620F53
:10068000731F811D911DDF91CF9108958F929F92CD
:10069000AF92BF92CF92DF92EF92FF924B015C013B
:1006A0000E9417036B017C01A8EEB3E0A501940141
:1006B0000E94E713C60ED71EE81EF91EC616D706FF
:1006C000E806F90618F40E941703F8CF0E941703F2
:1006D0006C157D058E059F05C8F3FF90EF90DF90A8
:1006E000CF90BF90AF909F908F9008952FB7F894C0
:1006F0006091392C70913A2C80913B2C90913C2C3C
:100700002FBF0895DC01ED91FC910190F081E02D67
:100710000994AF92BF92CF92DF92EF92FF920F9324
:100720001F93CF93DF936C017B018B01040F151F87
:10073000EB015E01AE18BF08C017D10759F06991EF
:10074000D601ED91FC910190F081E02DC601099553
:10075000892B79F7C501DF91CF911F910F91FF9000
:10076000EF90DF90CF90BF90AF900895FC01A485EB
:10077000B58511968C91119781FD1BC06C91828972
:100780008F5F8F739389981739F0A289AE0FBF2FAF
:10079000B11D59966C93828BE756FF4F80819181F2
:1007A000009741F0DC01ED91FC910190F081E02D8A
:1007B00009948C910895FC0154894589252F30E0D6
:1007C000842F90E0821B930B541710F0CF9608955E
:1007D00001970895FC0192898389981761F0A38994
:1007E000AE0FBF2FB11D59968C9193899F5F9F7358
:1007F000938B90E008958FEF9FEF0895FC0192890D
:100800008389981731F08389E80FF11D818D90E07D
:1008100008958FEF9FEF0895FC0192892389892F16
:1008200090E0805C9F4F821B91098F7399270895F8
:10083000CF93DF93EC01E881F9810680F781E02D09
:100840000995EC85FD8586818F738683EC85FD8512
:1008500085818F7585838B898A8B198ADF91CF91EA
:100860000895CF92DF92EF92FF920F931F93CF9351
:10087000DF93EC016A017B01022F8989882339F01B
:10088000E881F9810288F389E02DCE0109959889E4
:100890008091E205892B8093E2051FB7F89460E010
:1008A00070E281EA97E0A70196010E94C5136901F1
:1008B0007A018FEFC81AD80AE80AF80AF694E79482
:1008C000D794C794EC85FD8586818D7F8683EC85E2
:1008D000FD8586818683198AA09123110A2E000C3A
:1008E000BB0BA70196010E946C1420E034E040E0AD
:1008F00050E00E944614EC85FD85C20ED31EE41E16
:10090000F51EC086D186EC85FD850783EC85FD85C7
:100910008681806C8683EC85FD85858180688583F2
:100920008E8562E070E00E9412038F8561E070E0C6
:100930000E940D038F8561E070E00E9412031FBFCB
:10094000DF91CF911F910F91FF90EF90DF90CF90AB
:100950000895CF93DF93FC0194898589C485D5855B
:10096000981306C08D818F7D8D83DF91CF9108957F
:10097000A589AE0FBF2FB11DA75ABF4F2C918589F6
:1009800090E001968F739927858B80E48C83A485F2
:10099000B58512962C93948985899813E6CFA48502
:1009A000B58515968C9115978F7D15968C938789B3
:1009B0008823D9F2808D80931301178AD6CFDC016A
:1009C0001C96ED91FC910FB607FE03C0258125FD15
:1009D00004C0248125FD0C94A9040895EF92FF9290
:1009E0000F931F93CF93DF93EC0181E0898B9C8958
:1009F0008D8998131CC0AC85BD8514968C91149775
:100A000085FF15C012966C93AC85BD8580E4149665
:100A10008C93EC85FD8585818F7D858381E090E0D9
:100A2000DF91CF911F910F91FF90EF9008958091EA
:100A3000110180FF08C080911301888F8E898093F7
:100A4000130181E08F8BF62E0C8910E00F5F1F4F92
:100A50000F731127E02E8D898E1104C0CE010E94E4
:100A6000DF04F9CFEC89EC0FFD2FF11DE75AFF4FA2
:100A7000F0820C8BEC85FD8585818062CECFCF9393
:100A8000DF93FC0121892223C9F0EC01809111013F
:100A900080FF08C080911301808F868980931301A5
:100AA00081E0878BEC85FD85858185FD03C0848190
:100AB00086FD04C0CE010E94DF04F4CFDF91CF9108
:100AC000089581E008950895EF92FF920F931F9388
:100AD000CF93DF937C01EB018B01040F151FC0172F
:100AE000D10759F0D701ED91FC910480F581E02DFB
:100AF0006881C70109958993F2CFDF91CF911F914A
:100B00000F91FF90EF9008950F931F93CF93DF9372
:100B1000EC018B018091C008E881F9810480F581A6
:100B2000E02D86FD13C0612FCE010995182FE881B5
:100B3000F9810480F581E02D602FCE010995082F01
:100B4000C801DF91CF911F910F910895CE010995B2
:100B5000082FE881F9810480F581E02D612FCE0115
:100B60000995182FEDCF00006093C4088091C30849
:100B700087FFFCCF8091C4080895CF93DF931F9225
:100B8000CDB7DEB7898369818AE49DE20F90DF915A
:100B9000CF910C94B305CF93DF93EC018FEF0E94BC
:100BA000BD058883DF91CF910895AF92BF92CF9218
:100BB000DF92EF92FF920F931F93CF93DF9300D0BA
:100BC000CDB7DEB7182F6B017A011A8289EEA82EF5
:100BD00083E0B82E1982CE0101960E94CB0589814F
:100BE0008F3E31F091E0A91AB10831F1803E91F7C2
:100BF000CE0102960E94CB0510688A8118131EC090
:100C0000CE0102960E94CB058A818130B9F48FEF24
:100C10000E94BD05F701808310E000E0F7018081AC
:100C200080171106D1F0CCF0C601800F911F0E94F1
:100C3000CB050F5F1F4FF2CF803ED1F290E080E0F6
:100C40000F900F90DF91CF911F910F91FF90EF9038
:100C5000DF90CF90BF90AF900895CE0102960E9492
:100C6000CB0581E090E0ECCF8F929F92AF92BF9244
:100C7000CF92DF92EF92FF920F931F93CF93DF9368
:100C8000FC018085882319F081FF0EC07894DF91E4
:100C9000CF911F910F91FF90EF90DF90CF90BF9079
:100CA000AF909F908F90089580FFF1CF82849384BE
:100CB000A484B584C12CD12C760110E09401A50147
:100CC000B601C701A0E00E94911499F1217030E0B3
:100CD00040E050E060E070E080E090E00E9491141D
:100CE000D9F0D0E0C0E0103370F4C12FC695C6959E
:100CF000C69580E2C89FE0011124C05FDB4F812FC1
:100D00008770C80FD11DCF01810F911DDC01529654
:100D10008C919881892B88839401A501B601C70124
:100D200001E00E94761449015A016B017C011F5FAA
:100D3000C5CF86849784A088B188C12CD12C760138
:100D400010E29401A501B601C701A0E00E94911430
:100D500009F49DCF217030E040E050E060E070E0A9
:100D600080E090E00E949114D9F0D0E0C0E0103310
:100D700070F4C12FC695C695C695B0E2CB9FE00131
:100D80001124C05FDB4F812F8770C80FD11DCF01A9
:100D9000810F911DDC0152968C919881892B88835B
:100DA0009401A501B601C70101E00E947614490132
:100DB0005A016B017C011F5FC4CF61E070E080913C
:100DC00001280E940D038AE49DE20C943406FC0184
:100DD0006F3F710581F1808581FD2DC06032710505
:100DE0005CF581E090E002C0880F991F6A95E2F7F8
:100DF00080959095092E000CAA0BBB0B428553855C
:100E00006485758584239523A623B72382879387DA
:100E1000A487B58782859385A485B585892B8A2B80
:100E20008B2B49F486859785A089B189892B8A2BDC
:100E30008B2B09F4108608956052710981E090E0CF
:100E400002C0880F991F6A95E2F780959095092E48
:100E5000000CAA0BBB0B46855785608971898423DA
:100E60009523A623B72386879787A08BB18BD2CFF4
:100E7000FC016F3F7105E9F1603371051CF082E000
:100E80008087089580858160808760327105C4F411
:100E900081E090E002C0880F991F6A95E2F7092E61
:100EA000000CAA0BBB0B4285538564857585842B8A
:100EB000952BA62BB72B82879387A487B587089598
:100EC0006052710981E090E002C0880F991F6A9515
:100ED000E2F7092E000CAA0BBB0B468557856089EB
:100EE0007189842B952BA62BB72B86879787A08B90
:100EF000B18B0895E0ECF8E020812E7F2083FC0187
:100F000017820895E0ECF8E082818E7F8283089555
:100F1000E0ECF8E0828181608283089520910F28BF
:100F2000211105C010920E2821E020930F28209156
:100F30000E28211102C00E9465140895DC01ED9174
:100F4000FC910088F189E02D23E030E009942F9294
:100F50003F924F925F926F927F928F929F92AF9249
:100F6000BF92CF92DF92EF92FF920F931F93CF9396
:100F7000DF93CDB7DEB7CF50D140CDBFDEBFC25F6C
:100F8000DE4F88839983CE50D1402A013B0169010D
:100F90000E9476034B015C019E012F5F3F4FC55FAE
:100FA000DE4F28833983CB50D14034E0C35FDE4F1E
:100FB0003883CD50D140F12CE12CC35FDE4F8881C6
:100FC000CD50D140082F10E018019AE0290E311CB5
:100FD000E214F304E8F50E947603681979098A0996
:100FE0009B096415750586059705A8F580912F2E38
:100FF0009091302EDC01ED91FC910084F185E02D83
:101000000995892B29F380912F2E9091302EDC01A8
:10101000ED91FC910284F385E02D0995C55FDE4FCB
:10102000E881F981CB50D1408193C55FDE4FE883E1
:10103000F983CB50D140F3E0EF16F10429F4C35FFC
:10104000DE4F8883CD50D1402FEFE21AF20AB5CFA0
:101050002E143F04C9F08FEF9FEFC15FDE4FCDBF6D
:10106000DEBFDF91CF911F910F91FF90EF90DF9046
:10107000CF90BF90AF909F908F907F906F905F9038
:101080004F903F902F9008958981803C21F78A816D
:10109000813009F78B81C25FDE4FA881B981CE50C4
:1010A000D1408A171B06B9F6FE01E00FF11F8681B9
:1010B0008111D1CFFE01E00FF11F87818111CBCFCC
:1010C000EAE0F0E0EC0FFD1FE00FF11F8081803CB3
:1010D00011F6C114D10449F0A80144505109BE01D0
:1010E000665F7F4FC6010E94851690E080E0B5CF15
:1010F000AF92BF92CF92DF92EF92FF920F931F9326
:10110000CF93DF93CDB7DEB7E497CDBFDEBF80913D
:101110002F2E9091302EDC01ED91FC910684F78505
:10112000E02D48E652ED61E070E0099561E070E085
:101130008091312E0E94120361E070E08091332E85
:101140000E94120370E060E08091312E0E940D0336
:1011500070E060E08091332E0E940D0364E670E041
:1011600080E090E00E94460361E070E08091332EC1
:101170000E940D0364E670E080E090E00E94460368
:1011800070E060E08091332E0E940D0385E0E82E30
:10119000F12C8E010F5F1F4F5E01B5E3AB0EB11C4A
:1011A00084E2E4E4FDE6D80101900D928A95E1F72E
:1011B00044E250E0B80188E090E00E94B7016E017F
:1011C000F5E2CF0ED11C30E020E044E650E060E0D4
:1011D00070E088E090E00E94A707D6018D939D9370
:1011E0006D01AA16BB0679F78DA19EA1892BF1F49A
:1011F00088E0F80111928A95E9F748E050E0B801DB
:101200008DE090E00E94B70130E020E048EB5BE029
:1012100060E070E08DE090E00E94A70731E020E000
:10122000892B09F030E0832F922F07C0E1E0EE1AFE
:10123000F10809F0B5CF80E090E0E496CDBFDEBFC5
:10124000DF91CF911F910F91FF90EF90DF90CF90A2
:10125000BF90AF9008950E9476038091062889324E
:1012600020F40E94E802892BC1F708950C943F15E1
:10127000FB0101900020E9F73197AF01461B570BA6
:10128000DC01ED91FC910280F381E02D09948F92B5
:101290009F92AF92BF92EF92FF920F931F93CF93C3
:1012A000DF93CDB7DEB7A197CDBFDEBF7C01FA01DA
:1012B000CB0119A2223008F42AE08E010F5D1F4FE6
:1012C000822E912CB12CA12CBF01A50194010E946A
:1012D000C513F901CA016A30F4F4605DD8016E9358
:1012E0008D01232B242B252B79F790E080E010979C
:1012F00021F0BD01C7010E943809A196CDBFDEBF14
:10130000DF91CF911F910F91FF90EF90BF90AF9021
:101310009F908F900895695CE1CF2F923F924F92FA
:101320005F926F927F928F929F92AF92BF92CF9275
:10133000DF92EF92FF920F931F93CF93DF9300D032
:101340001F92CDB7DEB78A839B834B01FC01828954
:101350009389019709F0CEC08F0144244A9431E06B
:1013600090E08FEF20E042814111B0C043814111F4
:10137000ADC09F5F8F3F11F4822F91E0391714F4B5
:10138000392F482E32962F5F283069F71A821B8238
:10139000D12CC12CA42C042C000CBB083501630EED
:1013A000711C37FD7A94CA14DB0424F0C614D704E8
:1013B0000CF490C0F8018281682F70E094E075957C
:1013C00067959A95E1F7362E8F70582E8381E82E17
:1013D000F12C24E0F594E7942A95E1F72E2C8F70F8
:1013E0008983662309F4B7C0F9E0F61708F470C0E2
:1013F000605DC4010E9482032A813B81280F391F4E
:101400002A833B8339E060E3351508F467E5650D11
:10141000C4010E948203EA81FB81E80FF91FEA837D
:10142000FB83311004C0511002C0222079F0F9E092
:1014300060E3F21508F467E56E0DC4010E948203B3
:101440002A813B81280F391F2A833B833981632FEF
:10145000605D3A3010F06981695AC4010E948203CC
:10146000EA81FB81E80FF91FEA83FB83F7E0CF16DF
:10147000D10451F06AE3C4010E9482032A813B81B6
:10148000280F391F2A833B833FEFC31AD30A0E5F0D
:101490001F4F88E0C816D10409F085CF8A819B814F
:1014A0002396CDBFDEBFDF91CF911F910F91FF90AB
:1014B000EF90DF90CF90BF90AF909F908F907F90F4
:1014C0006F905F904F903F902F9008958FEF5ACF7D
:1014D000695A8FCFAC14BD04B9F64110CBCF6AE383
:1014E000C4010E948203EA81FB81E80FF91FEA83AD
:1014F000FB83C0CFEA80FB80EEE0EE0EF11CAA80F9
:10150000BB80F1E1AF0EB11C10E000E0F7014191AA
:101510007F0150E070E060E02AE0C4010E944709CA
:101520006C016EE2C4010E9482038C0D9D1D080FA8
:10153000191FAE14BF0451F7EA81FB81418950E0C5
:1015400070E060E02AE0C4010E944709800F911F0B
:101550008A839B83A3CF511055CF67CFCF93DF935F
:10156000BC018DE69CE20E943809EC016AE47EE64B
:101570008DE69CE20E9438098C0F9D1FDF91CF9170
:101580000895CF92DF92EF92FF920F93FC01C12C4E
:10159000B9E0DB2EBDE3EB2EF12CC082D182E282DA
:1015A000F3821482158281E090E086839783C09055
:1015B0000228D0900328E0900428F0900528F694A3
:1015C000E794D794C79490E04C155D056E057F05B0
:1015D00040F4F694E794D794C7949F5F9630A1F7B0
:1015E00097E004600187892F8095A82FA170B0E053
:1015F00084E0AA0FBB1F8A95E1F791629A2B80E0E5
:10160000232B09F480E4982B90870F91FF90EF90A3
:10161000DF90CF9008950F931F93CF93DF93CDB7B3
:10162000DEB72A97CDBFDEBF8C01FC018781811117
:101630000CC01086118612861386148615861686AF
:101640001786108A118A81E087838091E305F8016B
:101650009681892B8093E30561E070E083810E948D
:10166000120361E070E0F80184810E94120380910E
:10167000C10884608093C1088091C0088162809312
:10168000C00840918C2D50918D2D60918E2D7091C0
:101690008F2D0091902D2091922D3091932DCE0180
:1016A00001960E94C10A99858A859093C00880930B
:1016B000C1082A96CDBFDEBFDF91CF911F910F9158
:1016C0000895CF9383E28093012884E280930628D3
:1016D000C1E0C09317288DE18093002861E070E09D
:1016E00083E20E94450270E060E084E20E941203FF
:1016F00061E070E08DE10E94120361E070E08CE136
:101700000E94450261E070E08CE10E94A50261E068
:1017100070E083E20E940D0361E070E08DE10E94C1
:101720000D036AE070E080E090E00E94460370E004
:1017300060E08DE10E940D036EEE72E080E090E0CB
:101740000E94460370E060E08CE10E94A50270E018
:1017500060E08CE10E9445028AE49DE20E940B0B4E
:10176000C093322CCF9108955F926F927F928F92A7
:101770009F92AF92BF92CF92DF92EF92FF920F9320
:101780001F93CF93DF93CDB7DEB76297CDBFDEBF98
:101790003C010B871C872D873E87042F4F87588B72
:1017A000698B7A8B29893A894B855C856D857E8525
:1017B000CE0101960E94C10A59841A85D301189658
:1017C0008C91882319F081FF18C0F8945092C008BA
:1017D0001093C1086296CDBFDEBFDF91CF911F91FC
:1017E0000F91FF90EF90DF90CF90BF90AF909F90C0
:1017F0008F907F906F905F90089580FFE7CFF30107
:1018000082849384A484B584C12CD12C7601B0E069
:101810009401A501B601C701A0E00E949114A9F1AD
:10182000217030E040E050E060E070E080E090E067
:101830000E949114E9F090E080E0B03370F48B2FB7
:10184000869586958695F0E28F9FC0011124805F72
:101850009B4F2B2F2770820F911DFC01408193011C
:101860002B0F311DF901428BFC012081287F208341
:101870009401A501B601C70101E00E947614490157
:101880005A016B017C01BF5FC3CFD3011E968D90BF
:101890009D90AD90BC905197C12CD12C7601B0E2B7
:1018A0009401A501B601C701A0E00E94911409F4BA
:1018B0008DCF217030E040E050E060E070E080E0EB
:1018C00090E00E949114E9F090E080E0B03370F471
:1018D0008B2F869586958695E0E28E9FC001112418
:1018E000805F9B4F2B2F2770820F911DFC01408141
:1018F00093012B0F311DF901428BFC012081287FC0
:1019000020839401A501B601C70101E00E9476146D
:1019100049015A016B017C01BF5FC2CFCF92DF92B8
:10192000EF92FF920F931F93CF93DF93CDB7DEB764
:101930002897CDBFDEBF80E0082F1D821E8281E088
:10194000682F12E12AE730E040E05E8170E08AE42F
:101950009DE20E94B40B70E060E0809101280E943B
:101960000D030E9476036B017C0180910628893269
:10197000B8F00E9476036C197D098E099F096530C5
:1019800071058105910588F32896CDBFDEBFDF91F3
:10199000CF911F910F91FF90EF90DF90CF9008951E
:1019A0000E94E802019781F3E4CF1F920F920FB6D5
:1019B0000F9211242F933F934F935F936F937F93D5
:1019C0008F939F93AF93BF934091392C50913A2CB2
:1019D00060913B2C70913C2C8091372C9091382C4D
:1019E0002091352C3091362C420F531F611D711DF3
:1019F0002091332C3091342C820F931F883E23E0AA
:101A0000920730F0885E93404F5F5F4F6F4F7F4F7C
:101A10008093372C9093382C4093392C50933A2C48
:101A200060933B2C70933C2C8091412C9091422CE4
:101A3000A091432CB091442C0196A11DB11D80931F
:101A4000412C9093422CA093432CB093442C81E0E2
:101A50008093B60ABF91AF919F918F917F916F91C3
:101A60005F914F913F912F910F900FBE0F901F905C
:101A700018951F920F920FB60F9211242F933F9338
:101A80004F935F936F937F938F939F93AF93BF9386
:101A9000EF93FF9384E99DE20E94A904FF91EF91E7
:101AA000BF91AF919F918F917F916F915F914F9176
:101AB0003F912F910F900FBE0F901F9018951F927E
:101AC0000F920FB60F9211242F933F934F935F9372
:101AD0006F937F938F939F93AF93BF93EF93FF93F6
:101AE00084E99DE20E94B603FF91EF91BF91AF910F
:101AF0009F918F917F916F915F914F913F912F9126
:101B00000F900FBE0F901F9018951F920F920FB657
:101B10000F9211242F933F934F935F936F937F9373
:101B20008F939F93AF93BF93EF93FF938DE69CE2C8
:101B30000E94A904FF91EF91BF91AF919F918F9166
:101B40007F916F915F914F913F912F910F900FBEB9
:101B50000F901F9018951F920F920FB60F9211249D
:101B60002F933F934F935F936F937F938F939F93A5
:101B7000AF93BF93EF93FF938DE69CE20E94B60371
:101B8000FF91EF91BF91AF919F918F917F916F9155
:101B90005F914F913F912F910F900FBE0F901F902B
:101BA0001895CF92DF92EF92FF92CF93DF93E9E502
:101BB000FCE280E19EE68083918321E030E0228B8D
:101BC000338BEBE5FCE240E1DF011D924A95E9F73A
:101BD000E5E4FCE280839183128A138AA7E4BCE2E5
:101BE0008CE0ED0119928A95E9F716861786108A1E
:101BF000118AE4E9FDE21282138288EEC82E83E0A6
:101C0000D82EE12CF12CC482D582E682F78246E1FF
:101C10005EE64083518380E098E08487958787E182
:101C2000868788E1878781E0808B128A138A148AED
:101C3000158A92E1968B178A108E10922D2E109293
:101C40002E2EADE6BCE212961D921C9213971496AE
:101C5000CD92DD92ED92FC9217974D935C93119784
:101C600040E658E01C964D935C931D979AE11E96B2
:101C70009C931E979BE11F969C931F9790E4509610
:101C80009C93509752961C92529753961C9253973E
:101C900054961C92549755961C92559796E25696D8
:101CA0009C93569757961C92579758961C92109251
:101CB000062D1092072DA8E0BDE29CE3ED011992DC
:101CC0009A95E9F7A4E4BDE240E553EC60E070E0EA
:101CD0004D935D936D937C93139714961D921C9274
:101CE0001597ACE8BDE240E059E06DE370E04D933C
:101CF0005D936D937C93139714961D921C92159788
:101D000016962D933C931797AAE4BDE220E33EE696
:101D10002D933C93119717961C92179716968C93B8
:101D2000169781E212968C93129782E214968C9306
:101D3000149780E213968C93139786E115968C93F3
:101D4000AFE2BEE2ED93FC9311978CE190E0129626
:101D50008D939C9313978DE190E014968D939C93B3
:101D60001597DF91CF91FF90EF90DF90CF9008957E
:101D7000CF93DF93CDB7DEB7CB54D109CDBFDEBF54
:101D800088ED90E084BF9093610080E094E2A4EF3E
:101D9000B0E08093022890930328A0930428B09386
:101DA00005288091020686608093020680910006D5
:101DB000816080930006809102068F7C80930206EA
:101DC0008091A0008F788093A000809102068061AE
:101DD000809302061092E20581E08093E40583E09F
:101DE0008093010A8FEF90E08093260A9093270A50
:101DF00080E890E08093380A9093390A80933A0AF9
:101E000090933B0A80933C0A90933D0A8BE0809329
:101E1000000A8091E50581608093E5058091E505E4
:101E200082608093E505E0E8FAE037E02FEF90E884
:101E300085E031832487958780837096E03C4AE073
:101E4000F407B9F780E094E080933F2C9093402C06
:101E500080913F2C9091402C2FEF30E0B9010E94EF
:101E6000321460933D2C70933E2C80913F2C9091C6
:101E7000402CE8EEF3E0BF010E9432146093352C51
:101E80007093362C80913F2C9091402CBF010E9482
:101E900032148093332C9093342C2093BC0A3093CB
:101EA000BD0A8091B50A81608093B50A84E0809371
:101EB000B00A8091B00A81608093B00A789461E0A2
:101EC00070E08CE10E94450261E070E08CE10E94CC
:101ED000A50261E070E08DE10E94450261E070E0E2
:101EE0008DE10E94A50261E070E083E20E9445025C
:101EF00061E070E083E20E94A50261E070E08EE1A3
:101F00000E94450261E070E08EE10E94A50240E47B
:101F100052E46FE070E08DE69CE20E949E078DE641
:101F20009CE20E940C04892BD1F38DE69CE20E9476
:101F3000EA03823759F0863709F47CC200E010E0EA
:101F400001151105E9F30E940000FACF0E947808FC
:101F5000892B11F1212CA4E03A2E412C512CCE01D9
:101F6000899626968EAF9FAF2697DE01919628968A
:101F7000AEAFBFAF289701E21CE2BCE20C321B07F8
:101F800081F08DE69CE20E94EA038F3F9807A9F357
:101F9000D8018D938D01F1CF8DE49EE60E94AE0AAB
:101FA000CDCF6091222C7091232C8091242C909184
:101FB000252C0E948E076093222C7093232C8093F3
:101FC000242C9093252C6091262C7091272C8091A5
:101FD000282C9091292C0E948E076093262C7093B8
:101FE000272C8093282C9093292C00912A2C109137
:101FF0002B2C80911928811105C010921828B1E06E
:10200000B093192880911828811103C0E12FF02F77
:102010008F0100932A2C10932B2CF1E2EF2EF8E283
:10202000FF2E0F5D174DE016F10659F08DE69CE28C
:102030000E94EA038F3F9807B1F3D7018D937D018A
:10204000F2CF8091212C893901F58091222C909139
:10205000232CA091242CB091252C84349343A242AC
:10206000B14199F48091262C9091272CA091282C95
:10207000B091292C88389747A646B54531F468E7D2
:102080007EE68DE69CE20E9438098091212C803505
:10209000D9F480911928811105C01092182821E0E7
:1020A0002093192880911828882309F453C180E0CF
:1020B00094E089839A8342E050E0BE016F5F7F4FD6
:1020C0008DE69CE20E9489038091212C813021F4CD
:1020D0008FE79EE60E94AE0A8091212C823009F0A3
:1020E000A7C060902A2C70902B2C6301F12CE12C5E
:1020F0008DB79EB72C968EAF9FAF2C978090392EC0
:1021000090903A2EA0903B2EB0903C2ED501C40169
:1021100072E0B695A795979587957A95D1F704962D
:10212000DC01AA0FBB1FAA0FBB1F2A96AEAFBFAF21
:102130002A97EDB7FEB7EA1BFB0BEDBFFEBF0DB74D
:102140001EB70F5F1F4FADB7BEB71196CD92DD9290
:10215000ED92FC9214978091352E9091362EA0919D
:10216000372EB091382EAC01BD014F5F5F4F6F4FDE
:102170007F4F4093352E5093362E6093372E7093B9
:10218000382EF80184839583A683B7831086118641
:102190001286138614861586168617868DB79EB707
:1021A0004196A30161E278E20E948516C814D90421
:1021B000EA04FB04D0F4A4014619570932E0F6946E
:1021C000E794D794C7943A95D1F7F4E0CF0ED11C99
:1021D000E11CF11CCC0CDD1CCC0CDD1C6FEF70E0A5
:1021E000C8018C0D9D1D0E948E162A964EAD5FADC6
:1021F0002A97B80183E090E00E94B70130E020E028
:1022000048EB5BE060E070E083E090E00E94A707AD
:102210002C962EAD3FAD2C972DBF3EBF6FE77EE6CF
:10222000892B11F462E87EE68DE69CE20E94380973
:102230008091212C833009F054C04091222C509180
:10224000232C6091242C7091252C8091262C909128
:10225000272CA091282CB091292C89839A83AB83B9
:10226000BC832AE0B695A795979587952A95D1F7CF
:102270008D839E83AF83B88729863A864B865C869A
:102280004D875E876F87788B40E150E0BE016F5FBE
:102290007F4F82E090E00E94B7011092352E10929D
:1022A000362E1092372E1092382E2092392E3092E0
:1022B0003A2E40923B2E50923C2E30E020E040ECF3
:1022C00054ED61E070E082E090E00E94A7076FE7C4
:1022D0007EE6892B11F462E87EE68DE69CE20E94A0
:1022E00038098091212C843009F045CE8090222C31
:1022F0009090232CA090242CB090252CC090262CBC
:10230000D090272CE090282CF090292C81E090E0B0
:10231000A0E0B0E089839A83AB83BC8344E050E0C3
:10232000BE016F5F7F4F84E090E00E94B70130E014
:1023300020E048EB5BE060E070E084E090E00E9429
:10234000A707892B51F06FE77EE68DE69CE20E949D
:10235000380911CE84E090E0ACCE80912F2E909180
:10236000302EDC01ED91FC910288F389E02D099576
:102370000E947808892B39F388E02696EEADFFADF0
:10238000269711928A95E9F789A29AA2ABA2BCA2DC
:10239000CDA2DEA2EFA2F8A640E150E0BE016F5D43
:1023A0007F4F83E190E00E94B7019E012F5F3F4F76
:1023B00048EB5BE060E070E083E190E00E94A707FB
:1023C000892B09F624961FAE24978E010F5F1F4FAD
:1023D0007E01F1E3EF0EF11C6701D8018C9122968A
:1023E0008FAF229711968C9123968FAF239740E160
:1023F00050E070E060E0CE018F5B9F4F0E94BE1204
:10240000F70161937F010E5F1F4F28962EAD3FAD00
:1024100028972017310709F762E87EE68DE69CE2EF
:102420000E94380940E150E0B6018DE69CE20E942E
:102430008903A1CD8091322C811102C00E94610BD1
:102440000E942B090E948E0C80EE0E94BD0580E246
:102450000E94BD0580E00E94BD058EEE0E94BD0574
:102460000E94DD060E942B090E948E0C8FEF89A32B
:102470001982AE014F5F5F4FBE016F5D7F4F80E2FB
:102480000E94D5050E94DD0689A18F3F19F485E8D9
:102490009EE684CD8091322C811102C00E94610B96
:1024A0000E942B090E948E0C80EE0E94BD0587E3DE
:1024B0000E94BD0580E00E94BD058EEE0E94BD0514
:1024C0000E94DD060E942B090E948E0C1982AE012B
:1024D0004F5F5F4F6CE27CE287E30E94D5050E946C
:1024E000DD060CE21CE2D8010D900020E9F78D0119
:1024F0000D521C42B8016F5F7F4F90E080E00E9458
:10250000C8157C010097F9F0FC011082A8016CE26B
:102510007CE20E948516F701E00FF11F1082A801EE
:10252000B7018DE69CE20E9489036AE47EE68DE6AF
:102530009CE20E943809E114F10409F4FFCCC701C0
:102540000E943F15FBCC10E000E0E9CFCF93DF9372
:10255000C8E0DDE288819981009741F00E943F1533
:102560001A821B82188219821C821D8226968DE295
:10257000C434D80779F7DF91CF910895B0E0A0E097
:10258000E4ECF2E10C94F3135C016B017A01611548
:10259000710519F0FB0180839183E114F10449F086
:1025A000C7010297839728F060E070E0CB019CC0E0
:1025B0005E01E5012196F5011081812F90E00E94D6
:1025C000A913892BA9F71D3209F056C02196F501F0
:1025D000118101E0E114F10409F4AEC0F0E1EF165D
:1025E000F10409F08EC0103341F488818F7D883565
:1025F00009F083C0198122960260E0E1EE2EF12CF1
:1026000088248A94982CA82CFFE0BF2E20E060E05C
:1026100070E0CB0127010F2C000C66087708FE0143
:1026200050ED352E310E39E0331538F43FEB310FD4
:102630003A31A0F549EC342E310E3E141F04BCF59E
:102640002F3FB9F086169706A806B90670F1A301C8
:1026500092010E94B513232D30E050E040E0620F5C
:10266000731F841F951F6217730784079507E8F08F
:1026700021E021961081D3CF1B3221F4E50122966F
:10268000F501118100E0A6CF78E0E72EF12C882437
:102690008A94982CA82C6FE1B62EB8CF3FE9310F61
:1026A0003A3128F439EA332EC7CF2FEFE2CFC114E5
:1026B000D10431F02223E9F02197F601C083D183C0
:1026C00000FF07C090958095709561957F4F8F4F63
:1026D0009F4F2F3F49F482E290E080933D2E9093EC
:1026E0003E2E6FEF7FEFCB01CDB7DEB7E1E10C946B
:1026F0000C1401FFE5CF2297E0CF10E3E114F104C1
:1027000019F23AE0E316F104E9F080E1E816F10489
:1027100009F473CFE8E0EE16F10409F4B8CF6FEFD7
:102720007FEFCB0197010F2C000C440B550B0E943F
:10273000C51349015A016ACF103309F456CF9AE004
:10274000E92EF12C89E9882E982CA82C89E1B82E45
:102750005DCF91110C94B213803219F089508550DD
:10276000C8F70895992788270895DB018F939F93D1
:102770000E94E713BF91AF91A29F800D911DA39F6F
:10278000900DB29F900D11240895A1E21A2EAA1B5C
:10279000BB1BFD010DC0AA1FBB1FEE1FFF1FA21711
:1027A000B307E407F50720F0A21BB30BE40BF50B0E
:1027B000661F771F881F991F1A9469F76095709597
:1027C000809590959B01AC01BD01CF0108950E94B9
:1027D0002314A59F900DB49F900DA49F800D911D73
:1027E000112408952F923F924F925F926F927F92A1
:1027F0008F929F92AF92BF92CF92DF92EF92FF9211
:102800000F931F93CF93DF93CDB7DEB7CA1BDB0BBC
:10281000CDBFDEBF09942A88398848885F846E84DA
:102820007D848C849B84AA84B984C884DF80EE80F4
:10283000FD800C811B81AA81B981CE0FD11DCDBF36
:10284000DEBFED010895A29FB001B39FC001A39F19
:10285000700D811D1124911DB29F700D811D1124D9
:10286000911D0895AA1BBB1B51E107C0AA1FBB1FE6
:10287000A617B70710F0A61BB70B881F991F5A950C
:10288000A9F780959095BC01CD010895052E97FB81
:102890001EF400940E945D1457FD07D00E94C513DA
:1028A00007FC03D04EF40C945D1450954095309580
:1028B00021953F4F4F4F5F4F0895909580957095AC
:1028C00061957F4F8F4F9F4F0895692796276927FE
:1028D0007827872778270895B7FF0C94E7130E947D
:1028E000E713821B930B089597FD1094002E083078
:1028F00098F00850232F342F452F562F672F782F0D
:10290000892F912DF4CF1594979587957795679595
:1029100057954795379527950A95AAF71124002DC5
:1029200008950024A7FD00942A173005400550059E
:1029300060057005800590050895EE0FFF1F059056
:10294000F491E02D09940F931F93CF93DF9382307E
:10295000910510F482E090E0E091412EF091422E3A
:1029600030E020E0B0E0A0E0309799F42115310587
:1029700009F44AC0281B390B24303105D8F58A8167
:102980009B816115710589F1FB0182839383FE01AF
:1029900011C0408151810281138148175907E0F02D
:1029A0004817590799F4109761F012960C931297F3
:1029B00013961C933296CF01DF91CF911F910F9107
:1029C00008950093412E1093422EF4CF2115310526
:1029D00051F04217530738F0A901DB019A01BD01FC
:1029E000DF01F801C1CFEF01F9CF8093412E909321
:1029F000422ECDCFFE01E20FF31F8193919322501F
:102A0000310928833983D7CF20913F2E3091402E32
:102A1000232B41F42091092830910A2820933F2E3E
:102A20003093402E20910728309108282115310538
:102A300041F42DB73EB740910B2850910C28241B30
:102A4000350BE0913F2EF091402EE217F307A0F4F2
:102A50002E1B3F0B2817390778F0AC014E5F5F4FF4
:102A60002417350748F04E0F5F1F40933F2E5093B9
:102A7000402E819391939FCFF0E0E0E09CCFCF93E5
:102A8000DF930097E9F0FC01329712821382A09144
:102A9000412EB091422EED0130E020E01097A1F4DC
:102AA00020813181820F931F20913F2E3091402E43
:102AB0002817390709F061C0E0933F2EF093402EAC
:102AC000DF91CF910895EA01CE17DF07E8F54A813B
:102AD0005B819E0141155105B1F7E901EA83FB8352
:102AE00049915991C40FD51FEC17FD0761F48081FE
:102AF00091810296840F951FE901888399838281D1
:102B000093818A839B83F0E0E0E012968D919C9103
:102B100013970097B9F52D913C911197CD0102962D
:102B2000820F931F20913F2E3091402E2817390796
:102B300039F6309751F51092412E1092422EA09303
:102B40003F2EB093402EBCCFC283D38340815181AE
:102B5000840F951FC817D90761F44E5F5F4F8881B6
:102B60009981480F591F408351838A819B818283B9
:102B700093832115310509F0B0CFE093412EF093F6
:102B8000422E9ECFFD01DC01C0CF12821382D7CF2F
:102B9000B0E0A0E0EEECF5E10C94F4138C010097AA
:102BA00051F4CB010E94A3148C01C801CDB7DEB74C
:102BB000E0E10C940D14FC01E60FF71F9C0122507C
:102BC0003109E217F30708F49DC0D901CD91DC91DA
:102BD0001197C617D70798F0C530D10530F3CE014D
:102BE00004978617970708F3C61BD70B2297C19344
:102BF000D1936D937C93CF010E943F15D6CF5B019B
:102C0000AC1ABD0A4C018C0E9D1EA091412EB091B4
:102C1000422E512C412CF12CE12C109731F5809152
:102C20003F2E9091402E8815990509F05CC04616FC
:102C3000570608F058C080910728909108280097FF
:102C400041F48DB79EB740910B2850910C28841BFE
:102C5000950BE817F90708F055C0E0933F2EF09365
:102C6000402EF90160837183A0CF8D919C911197C3
:102C700012966C90129713967C901397A815B9052D
:102C800059F56C0142E0C40ED11CCA14DB0420F1DA
:102C9000AC014A195B09DA011296159780F062823D
:102CA000738240835183D9016D937C93E114F104C5
:102CB00071F0D7011296ED93FC93139776CF22967D
:102CC0008C0F9D1FF90180839183F301EFCFE09377
:102CD000412EF093422E69CF4816590608F42C0174
:102CE0007D01D3019ACFCB010E94A3147C010097F0
:102CF00049F0AE01B8010E948516C8010E943F1537
:102D0000870153CF10E000E050CFFB01DC0102C08F
:102D100001900D9241505040D8F70895DC0101C058
:102D20006D9341505040E0F7089511E0C1E5D1E0C6
:102D300004C0FE010E949D142196C235D107C9F737
:042D4000F894FFCF35
:102D44000707122055555555555555555555555543
:102D5400555555555555555555555555555555551F
:102D64005555555500000003000102000001010003
:102D7400000000000000000000000000000000004F
:102D84000000000000000000000000000005040036
:102D9400050602040103000100010200010203040C
:102DA40005020303050406050406070307000102E0
:102DB40002030001070602020005020105000401E6
:102DC40001040404030303030303000002000003DB
:102DD40001010000010202020205050505030520A8
:102DE400100120400410020801020102040102043F
:102DF400081020040808201040201040800880019A
:102E04000204040801028040000000008D09000053
:102E14000000EE048903DB033F050C04EA03FE0310
:102E24009E0731041804610500000000630536099B
:102E3400B305840564053807E706B40B3406880730
:102E440082070B0B7A070D0A00556E61626C6520D0
:102E5400746F20636F6D6D756E696361746520773F
:102E640069746820455350333220626F6F74205266
:102E74004F4D2100763130303030004552004F4BF9
:0A2E84000039392E39392E39390092
:0E2E8E00050A0024F400070000432E80000017
:0400000300000200F7
:00000001FF
